{
  "contractName": "PeerToPeerLending",
  "abi": [
    {
      "constant": true,
      "inputs": [
        {
          "name": "",
          "type": "uint256"
        }
      ],
      "name": "credits",
      "outputs": [
        {
          "name": "",
          "type": "address"
        }
      ],
      "payable": false,
      "stateMutability": "view",
      "type": "function"
    },
    {
      "constant": false,
      "inputs": [],
      "name": "destroy",
      "outputs": [],
      "payable": false,
      "stateMutability": "nonpayable",
      "type": "function"
    },
    {
      "constant": true,
      "inputs": [],
      "name": "owner",
      "outputs": [
        {
          "name": "",
          "type": "address"
        }
      ],
      "payable": false,
      "stateMutability": "view",
      "type": "function"
    },
    {
      "constant": true,
      "inputs": [
        {
          "name": "",
          "type": "address"
        }
      ],
      "name": "users",
      "outputs": [
        {
          "name": "credited",
          "type": "bool"
        },
        {
          "name": "activeCredit",
          "type": "address"
        },
        {
          "name": "fraudStatus",
          "type": "bool"
        }
      ],
      "payable": false,
      "stateMutability": "view",
      "type": "function"
    },
    {
      "constant": false,
      "inputs": [
        {
          "name": "_recipient",
          "type": "address"
        }
      ],
      "name": "destroyAndSend",
      "outputs": [],
      "payable": false,
      "stateMutability": "nonpayable",
      "type": "function"
    },
    {
      "inputs": [],
      "payable": false,
      "stateMutability": "nonpayable",
      "type": "constructor"
    },
    {
      "anonymous": false,
      "inputs": [
        {
          "indexed": true,
          "name": "_address",
          "type": "address"
        },
        {
          "indexed": true,
          "name": "_borrower",
          "type": "address"
        },
        {
          "indexed": true,
          "name": "timestamp",
          "type": "uint256"
        }
      ],
      "name": "LogCreditCreated",
      "type": "event"
    },
    {
      "anonymous": false,
      "inputs": [
        {
          "indexed": true,
          "name": "_address",
          "type": "address"
        },
        {
          "indexed": true,
          "name": "state",
          "type": "uint8"
        },
        {
          "indexed": true,
          "name": "timestamp",
          "type": "uint256"
        }
      ],
      "name": "LogCreditStateChanged",
      "type": "event"
    },
    {
      "anonymous": false,
      "inputs": [
        {
          "indexed": true,
          "name": "_address",
          "type": "address"
        },
        {
          "indexed": true,
          "name": "active",
          "type": "bool"
        },
        {
          "indexed": true,
          "name": "timestamp",
          "type": "uint256"
        }
      ],
      "name": "LogCreditActiveChanged",
      "type": "event"
    },
    {
      "anonymous": false,
      "inputs": [
        {
          "indexed": true,
          "name": "_address",
          "type": "address"
        },
        {
          "indexed": false,
          "name": "fraudStatus",
          "type": "bool"
        },
        {
          "indexed": false,
          "name": "timestamp",
          "type": "uint256"
        }
      ],
      "name": "LogUserSetFraud",
      "type": "event"
    },
    {
      "anonymous": false,
      "inputs": [
        {
          "indexed": true,
          "name": "_currentOwner",
          "type": "address"
        },
        {
          "indexed": true,
          "name": "_newOwner",
          "type": "address"
        }
      ],
      "name": "LogOwnershipTransfered",
      "type": "event"
    },
    {
      "constant": false,
      "inputs": [
        {
          "name": "requestedAmount",
          "type": "uint256"
        },
        {
          "name": "repaymentsCount",
          "type": "uint256"
        },
        {
          "name": "interest",
          "type": "uint256"
        },
        {
          "name": "creditDescription",
          "type": "bytes32"
        }
      ],
      "name": "applyForCredit",
      "outputs": [
        {
          "name": "_credit",
          "type": "address"
        }
      ],
      "payable": false,
      "stateMutability": "nonpayable",
      "type": "function"
    },
    {
      "constant": true,
      "inputs": [],
      "name": "getCredits",
      "outputs": [
        {
          "name": "",
          "type": "address[]"
        }
      ],
      "payable": false,
      "stateMutability": "view",
      "type": "function"
    },
    {
      "constant": true,
      "inputs": [],
      "name": "getUserCredits",
      "outputs": [
        {
          "name": "",
          "type": "address[]"
        }
      ],
      "payable": false,
      "stateMutability": "view",
      "type": "function"
    },
    {
      "constant": false,
      "inputs": [
        {
          "name": "_borrower",
          "type": "address"
        }
      ],
      "name": "setFraudStatus",
      "outputs": [
        {
          "name": "",
          "type": "bool"
        }
      ],
      "payable": false,
      "stateMutability": "nonpayable",
      "type": "function"
    },
    {
      "constant": false,
      "inputs": [
        {
          "name": "_credit",
          "type": "address"
        }
      ],
      "name": "changeCreditState",
      "outputs": [],
      "payable": false,
      "stateMutability": "nonpayable",
      "type": "function"
    },
    {
      "constant": false,
      "inputs": [
        {
          "name": "_credit",
          "type": "address"
        },
        {
          "name": "state",
          "type": "uint8"
        }
      ],
      "name": "changeCreditState",
      "outputs": [],
      "payable": false,
      "stateMutability": "nonpayable",
      "type": "function"
    }
  ],
  "bytecode": "0x608060405234801561001057600080fd5b50336000806101000a81548173ffffffffffffffffffffffffffffffffffffffff021916908373ffffffffffffffffffffffffffffffffffffffff160217905550612e36806100606000396000f3006080604052600436106100af576000357c0100000000000000000000000000000000000000000000000000000000900463ffffffff168063036a1c22146100b45780632092cb331461012157806359658c481461018d578063823a71af146101d057806383197ef01461023c5780638da5cb5b14610253578063a87430ba146102aa578063bb9e424714610343578063ebb5d8ed1461039e578063f5074f411461042d578063fa838e5414610470575b600080fd5b3480156100c057600080fd5b506100df600480360381019080803590602001909291905050506104c0565b604051808273ffffffffffffffffffffffffffffffffffffffff1673ffffffffffffffffffffffffffffffffffffffff16815260200191505060405180910390f35b34801561012d57600080fd5b506101366104fe565b6040518080602001828103825283818151815260200191508051906020019060200280838360005b8381101561017957808201518184015260208101905061015e565b505050509050019250505060405180910390f35b34801561019957600080fd5b506101ce600480360381019080803573ffffffffffffffffffffffffffffffffffffffff1690602001909291905050506105cc565b005b3480156101dc57600080fd5b506101e561071a565b6040518080602001828103825283818151815260200191508051906020019060200280838360005b8381101561022857808201518184015260208101905061020d565b505050509050019250505060405180910390f35b34801561024857600080fd5b506102516107a8565b005b34801561025f57600080fd5b5061026861083d565b604051808273ffffffffffffffffffffffffffffffffffffffff1673ffffffffffffffffffffffffffffffffffffffff16815260200191505060405180910390f35b3480156102b657600080fd5b506102eb600480360381019080803573ffffffffffffffffffffffffffffffffffffffff169060200190929190505050610862565b60405180841515151581526020018373ffffffffffffffffffffffffffffffffffffffff1673ffffffffffffffffffffffffffffffffffffffff16815260200182151515158152602001935050505060405180910390f35b34801561034f57600080fd5b50610384600480360381019080803573ffffffffffffffffffffffffffffffffffffffff1690602001909291905050506108c6565b604051808215151515815260200191505060405180910390f35b3480156103aa57600080fd5b506103eb6004803603810190808035906020019092919080359060200190929190803590602001909291908035600019169060200190929190505050610a22565b604051808273ffffffffffffffffffffffffffffffffffffffff1673ffffffffffffffffffffffffffffffffffffffff16815260200191505060405180910390f35b34801561043957600080fd5b5061046e600480360381019080803573ffffffffffffffffffffffffffffffffffffffff169060200190929190505050610e0d565b005b34801561047c57600080fd5b506104be600480360381019080803573ffffffffffffffffffffffffffffffffffffffff169060200190929190803560ff169060200190929190505050610e81565b005b6002818154811015156104cf57fe5b906000526020600020016000915054906101000a900473ffffffffffffffffffffffffffffffffffffffff1681565b6060600160003373ffffffffffffffffffffffffffffffffffffffff1673ffffffffffffffffffffffffffffffffffffffff1681526020019081526020016000206001018054806020026020016040519081016040528092919081815260200182805480156105c257602002820191906000526020600020905b8160009054906101000a900473ffffffffffffffffffffffffffffffffffffffff1673ffffffffffffffffffffffffffffffffffffffff1681526020019060010190808311610578575b5050505050905090565b6000806000809054906101000a900473ffffffffffffffffffffffffffffffffffffffff1673ffffffffffffffffffffffffffffffffffffffff163373ffffffffffffffffffffffffffffffffffffffff1614151561062a57600080fd5b8291508173ffffffffffffffffffffffffffffffffffffffff166329c68dc16040518163ffffffff167c0100000000000000000000000000000000000000000000000000000000028152600401602060405180830381600087803b15801561069157600080fd5b505af11580156106a5573d6000803e3d6000fd5b505050506040513d60208110156106bb57600080fd5b81019080805190602001909291905050509050428115158373ffffffffffffffffffffffffffffffffffffffff167f25270acf0eab637903a9cd906e32d2ac17ce44db6c743ba5812f2924e84ff8d660405160405180910390a4505050565b6060600280548060200260200160405190810160405280929190818152602001828054801561079e57602002820191906000526020600020905b8160009054906101000a900473ffffffffffffffffffffffffffffffffffffffff1673ffffffffffffffffffffffffffffffffffffffff1681526020019060010190808311610754575b5050505050905090565b6000809054906101000a900473ffffffffffffffffffffffffffffffffffffffff1673ffffffffffffffffffffffffffffffffffffffff163373ffffffffffffffffffffffffffffffffffffffff1614151561080357600080fd5b6000809054906101000a900473ffffffffffffffffffffffffffffffffffffffff1673ffffffffffffffffffffffffffffffffffffffff16ff5b6000809054906101000a900473ffffffffffffffffffffffffffffffffffffffff1681565b60016020528060005260406000206000915090508060000160009054906101000a900460ff16908060000160019054906101000a900473ffffffffffffffffffffffffffffffffffffffff16908060000160159054906101000a900460ff16905083565b600060018060008473ffffffffffffffffffffffffffffffffffffffff1673ffffffffffffffffffffffffffffffffffffffff16815260200190815260200160002060000160156101000a81548160ff0219169083151502179055508173ffffffffffffffffffffffffffffffffffffffff167fbafb199a9909a7be73ceeaf6193dc9ea119ef469120d998d5f550140c0b13b54600160008573ffffffffffffffffffffffffffffffffffffffff1673ffffffffffffffffffffffffffffffffffffffff16815260200190815260200160002060000160159054906101000a900460ff164260405180831515151581526020018281526020019250505060405180910390a2600160008373ffffffffffffffffffffffffffffffffffffffff1673ffffffffffffffffffffffffffffffffffffffff16815260200190815260200160002060000160159054906101000a900460ff169050919050565b60008060001515600160003373ffffffffffffffffffffffffffffffffffffffff1673ffffffffffffffffffffffffffffffffffffffff16815260200190815260200160002060000160009054906101000a900460ff161515141515610a8757600080fd5b60001515600160003373ffffffffffffffffffffffffffffffffffffffff1673ffffffffffffffffffffffffffffffffffffffff16815260200190815260200160002060000160159054906101000a900460ff161515141515610ae957600080fd5b6000600160003373ffffffffffffffffffffffffffffffffffffffff1673ffffffffffffffffffffffffffffffffffffffff16815260200190815260200160002060000160019054906101000a900473ffffffffffffffffffffffffffffffffffffffff1673ffffffffffffffffffffffffffffffffffffffff16141515610b6d57fe5b60018060003373ffffffffffffffffffffffffffffffffffffffff1673ffffffffffffffffffffffffffffffffffffffff16815260200190815260200160002060000160006101000a81548160ff02191690831515021790555085858585610bd3610fef565b808581526020018481526020018381526020018260001916600019168152602001945050505050604051809103906000f080158015610c16573d6000803e3d6000fd5b50905080600160003373ffffffffffffffffffffffffffffffffffffffff1673ffffffffffffffffffffffffffffffffffffffff16815260200190815260200160002060000160016101000a81548173ffffffffffffffffffffffffffffffffffffffff021916908373ffffffffffffffffffffffffffffffffffffffff16021790555060028190806001815401808255809150509060018203906000526020600020016000909192909190916101000a81548173ffffffffffffffffffffffffffffffffffffffff021916908373ffffffffffffffffffffffffffffffffffffffff16021790555050600160003373ffffffffffffffffffffffffffffffffffffffff1673ffffffffffffffffffffffffffffffffffffffff1681526020019081526020016000206001018190806001815401808255809150509060018203906000526020600020016000909192909190916101000a81548173ffffffffffffffffffffffffffffffffffffffff021916908373ffffffffffffffffffffffffffffffffffffffff16021790555050423373ffffffffffffffffffffffffffffffffffffffff168273ffffffffffffffffffffffffffffffffffffffff167fa0c75b76492543c8eafdc7e35272287bd6f229dcf0f6c22429343044718c510860405160405180910390a480915050949350505050565b6000809054906101000a900473ffffffffffffffffffffffffffffffffffffffff1673ffffffffffffffffffffffffffffffffffffffff163373ffffffffffffffffffffffffffffffffffffffff16141515610e6857600080fd5b8073ffffffffffffffffffffffffffffffffffffffff16ff5b60008060009054906101000a900473ffffffffffffffffffffffffffffffffffffffff1673ffffffffffffffffffffffffffffffffffffffff163373ffffffffffffffffffffffffffffffffffffffff16141515610ede57600080fd5b8290508073ffffffffffffffffffffffffffffffffffffffff1663268f1153836040518263ffffffff167c010000000000000000000000000000000000000000000000000000000002815260040180826005811115610f3957fe5b60ff168152602001915050602060405180830381600087803b158015610f5e57600080fd5b505af1158015610f72573d6000803e3d6000fd5b505050506040513d6020811015610f8857600080fd5b81019080805190602001909291905050505042826005811115610fa757fe5b8273ffffffffffffffffffffffffffffffffffffffff167f9ae5127f6d87e374b5901ce23a9467e504811c54c03dda8741ad44a35a36146660405160405180910390a4505050565b604051611e0b8061100083390190560060806040526001600c60006101000a81548160ff0219169083151502179055506000600f5560006010556001420160125560006013553480156200004257600080fd5b5060405160808062001e0b83398101806040528101908080519060200190929190805190602001909291908051906020019092919080519060200190929190505050336000806101000a81548173ffffffffffffffffffffffffffffffffffffffff021916908373ffffffffffffffffffffffffffffffffffffffff16021790555032600160006101000a81548173ffffffffffffffffffffffffffffffffffffffff021916908373ffffffffffffffffffffffffffffffffffffffff1602179055508160058190555083600281905550826006819055508260078190555062000148600554600254620001fd6401000000000262001954179091906401000000009004565b600381905550620001756006546003546200021c6401000000000262001b7c179091906401000000009004565b60088190555080600b81600019169055504260098190555042600160009054906101000a900473ffffffffffffffffffffffffffffffffffffffff1673ffffffffffffffffffffffffffffffffffffffff167ff9f75c99c0e3522cd19ffc66fd6c94989a3f0821d37d5c5bb176aab904c6335d60405160405180910390a35050505062000238565b60008082840190508381101515156200021257fe5b8091505092915050565b60008082848115156200022b57fe5b0490508091505092915050565b611bc380620002486000396000f3006080604052600436106100db576000357c0100000000000000000000000000000000000000000000000000000000900463ffffffff16806312065fe0146100e0578063268f11531461010b57806328fd10d71461014f57806329c68dc1146101aa5780633ccfd60b146101d9578063402d8883146101f057806343c14b22146101fa578063590e1ae31461021157806383197ef0146102285780638da5cb5b1461023f578063d85da7b614610296578063e8b5e51f146102c5578063efd475ab146102cf578063f06817cf146102e6578063f5074f411461039d575b600080fd5b3480156100ec57600080fd5b506100f56103e0565b6040518082815260200191505060405180910390f35b34801561011757600080fd5b50610139600480360381019080803560ff1690602001909291905050506103ff565b6040518082815260200191505060405180910390f35b34801561015b57600080fd5b50610190600480360381019080803573ffffffffffffffffffffffffffffffffffffffff1690602001909291905050506104cc565b604051808215151515815260200191505060405180910390f35b3480156101b657600080fd5b506101bf6104ec565b604051808215151515815260200191505060405180910390f35b3480156101e557600080fd5b506101ee6105c7565b005b6101f86107eb565b005b34801561020657600080fd5b5061020f610ae9565b005b34801561021d57600080fd5b50610226610ccb565b005b34801561023457600080fd5b5061023d610fd5565b005b34801561024b57600080fd5b5061025461106a565b604051808273ffffffffffffffffffffffffffffffffffffffff1673ffffffffffffffffffffffffffffffffffffffff16815260200191505060405180910390f35b3480156102a257600080fd5b506102ab61108f565b604051808215151515815260200191505060405180910390f35b6102cd61123a565b005b3480156102db57600080fd5b506102e4611573565b005b3480156102f257600080fd5b506102fb611823565b604051808c73ffffffffffffffffffffffffffffffffffffffff1673ffffffffffffffffffffffffffffffffffffffff1681526020018b600019166000191681526020018a815260200189815260200188815260200187815260200186815260200185815260200184600581111561036f57fe5b60ff168152602001831515151581526020018281526020019b50505050505050505050505060405180910390f35b3480156103a957600080fd5b506103de600480360381019080803573ffffffffffffffffffffffffffffffffffffffff1690602001909291905050506118c7565b005b60003073ffffffffffffffffffffffffffffffffffffffff1631905090565b60008060009054906101000a900473ffffffffffffffffffffffffffffffffffffffff1673ffffffffffffffffffffffffffffffffffffffff163373ffffffffffffffffffffffffffffffffffffffff1614151561045c57600080fd5b81600c60016101000a81548160ff0219169083600581111561047a57fe5b021790555042600c60019054906101000a900460ff16600581111561049b57fe5b7faaae373901e745122c2e0925ad006227969c6cd190b7d5ea2fb7fdbd1d955b3560405160405180910390a3919050565b600d6020528060005260406000206000915054906101000a900460ff1681565b60008060009054906101000a900473ffffffffffffffffffffffffffffffffffffffff1673ffffffffffffffffffffffffffffffffffffffff163373ffffffffffffffffffffffffffffffffffffffff1614151561054957600080fd5b600c60009054906101000a900460ff1615600c60006101000a81548160ff02191690831515021790555042600c60009054906101000a900460ff1615157f160914ea27c60aa29a5f3a69d74e6069869de36e38939de1e0a66b921d8623d260405160405180910390a3600c60009054906101000a900460ff16905090565b60011515600c60009054906101000a900460ff1615151415156105e957600080fd5b600160009054906101000a900473ffffffffffffffffffffffffffffffffffffffff1673ffffffffffffffffffffffffffffffffffffffff163373ffffffffffffffffffffffffffffffffffffffff1614151561064557600080fd5b6002543073ffffffffffffffffffffffffffffffffffffffff16311015151561066d57600080fd5b60058081111561067957fe5b600c60019054906101000a900460ff16600581111561069457fe5b141515156106a157600080fd5b6001600c60016101000a81548160ff021916908360058111156106c057fe5b021790555042600c60019054906101000a900460ff1660058111156106e157fe5b7faaae373901e745122c2e0925ad006227969c6cd190b7d5ea2fb7fdbd1d955b3560405160405180910390a3423073ffffffffffffffffffffffffffffffffffffffff16313373ffffffffffffffffffffffffffffffffffffffff167f20734f14d107b526674905e470e35d0a474f9fb996a7bdb034c839c8894524e660405160405180910390a4600160009054906101000a900473ffffffffffffffffffffffffffffffffffffffff1673ffffffffffffffffffffffffffffffffffffffff166108fc3073ffffffffffffffffffffffffffffffffffffffff16319081150290604051600060405180830381858888f193505050501580156107e8573d6000803e3d6000fd5b50565b6000600160009054906101000a900473ffffffffffffffffffffffffffffffffffffffff1673ffffffffffffffffffffffffffffffffffffffff163373ffffffffffffffffffffffffffffffffffffffff1614151561084957600080fd5b6001600581111561085657fe5b600c60019054906101000a900460ff16600581111561087157fe5b14151561087d57600080fd5b600060075411151561088e57600080fd5b600854341015151561089f57600080fd5b6003546004541015156108ae57fe5b6007600081548092919060019003919050555042600a81905550600090506008543411156109a5576108eb6008543461193b90919063ffffffff16565b9050610900813461193b90919063ffffffff16565b60085414151561090c57fe5b34811115151561091857fe5b3373ffffffffffffffffffffffffffffffffffffffff166108fc829081150290604051600060405180830381858888f1935050505015801561095e573d6000803e3d6000fd5b5042813373ffffffffffffffffffffffffffffffffffffffff167f5c9874487a2258c6bd6dc39a2cfcf7ea944b50b79d9a7152668779687b2ebd8d60405160405180910390a45b426109b9823461193b90919063ffffffff16565b3373ffffffffffffffffffffffffffffffffffffffff167f350a09487d622378c6efbda255f996387696319f803a2e53eee64f7aa70be85a60405160405180910390a4610a23610a12823461193b90919063ffffffff16565b60045461195490919063ffffffff16565b6004819055506003546004541415610ae657423373ffffffffffffffffffffffffffffffffffffffff167f25630de45a38a90cbca3a2eb35a8197e51b56d6d912581711e5e3773fe77cabc60405160405180910390a36002600c60016101000a81548160ff02191690836005811115610a9857fe5b021790555042600c60019054906101000a900460ff166005811115610ab957fe5b7faaae373901e745122c2e0925ad006227969c6cd190b7d5ea2fb7fdbd1d955b3560405160405180910390a35b50565b60011515600c60009054906101000a900460ff161515141515610b0b57600080fd5b6012544210151515610b1c57600080fd5b60006005811115610b2957fe5b600c60019054906101000a900460ff166005811115610b4457fe5b141515610b5057600080fd5b60011515600d60003373ffffffffffffffffffffffffffffffffffffffff1673ffffffffffffffffffffffffffffffffffffffff16815260200190815260200160002060009054906101000a900460ff161515141515610baf57600080fd5b60001515601160003373ffffffffffffffffffffffffffffffffffffffff1673ffffffffffffffffffffffffffffffffffffffff16815260200190815260200160002060009054906101000a900460ff161515141515610c0e57600080fd5b60106000815480929190600101919050555060011515601160003373ffffffffffffffffffffffffffffffffffffffff1673ffffffffffffffffffffffffffffffffffffffff16815260200190815260200160002060009054906101000a90505050423373ffffffffffffffffffffffffffffffffffffffff167fd7173ce7e4ce6f6d075259ac1a467ab8290db175a2cee8587a663c006b97e12960405160405180910390a3601054600f541415610cc957610cc8611972565b5b565b60011515600c60009054906101000a900460ff161515141515610ced57600080fd5b60011515600d60003373ffffffffffffffffffffffffffffffffffffffff1673ffffffffffffffffffffffffffffffffffffffff16815260200190815260200160002060009054906101000a900460ff161515141515610d4c57600080fd5b60046005811115610d5957fe5b600c60019054906101000a900460ff166005811115610d7457fe5b141515610d8057600080fd5b600e60003373ffffffffffffffffffffffffffffffffffffffff1673ffffffffffffffffffffffffffffffffffffffff168152602001908152602001600020543073ffffffffffffffffffffffffffffffffffffffff163110151515610de257fe5b3373ffffffffffffffffffffffffffffffffffffffff166108fc600e60003373ffffffffffffffffffffffffffffffffffffffff1673ffffffffffffffffffffffffffffffffffffffff168152602001908152602001600020549081150290604051600060405180830381858888f19350505050158015610e67573d6000803e3d6000fd5b5042600e60003373ffffffffffffffffffffffffffffffffffffffff1673ffffffffffffffffffffffffffffffffffffffff168152602001908152602001600020543373ffffffffffffffffffffffffffffffffffffffff167f71e252e33f19f0223f47f27d00910548d26488b9b55cb5b410b75e273152f8d660405160405180910390a460003073ffffffffffffffffffffffffffffffffffffffff16311415610fd3576000600c60006101000a81548160ff02191690831515021790555042600c60009054906101000a900460ff1615157f160914ea27c60aa29a5f3a69d74e6069869de36e38939de1e0a66b921d8623d260405160405180910390a36003600c60016101000a81548160ff02191690836005811115610f8557fe5b021790555042600c60019054906101000a900460ff166005811115610fa657fe5b7faaae373901e745122c2e0925ad006227969c6cd190b7d5ea2fb7fdbd1d955b3560405160405180910390a35b565b6000809054906101000a900473ffffffffffffffffffffffffffffffffffffffff1673ffffffffffffffffffffffffffffffffffffffff163373ffffffffffffffffffffffffffffffffffffffff1614151561103057600080fd5b6000809054906101000a900473ffffffffffffffffffffffffffffffffffffffff1673ffffffffffffffffffffffffffffffffffffffff16ff5b6000809054906101000a900473ffffffffffffffffffffffffffffffffffffffff1681565b600060011515600c60009054906101000a900460ff1615151415156110b357600080fd5b60011515600d60003373ffffffffffffffffffffffffffffffffffffffff1673ffffffffffffffffffffffffffffffffffffffff16815260200190815260200160002060009054906101000a900460ff16151514151561111257600080fd5b60001515601460003373ffffffffffffffffffffffffffffffffffffffff1673ffffffffffffffffffffffffffffffffffffffff16815260200190815260200160002060009054906101000a900460ff16151514151561117157600080fd5b60136000815480929190600101919050555060011515601460003373ffffffffffffffffffffffffffffffffffffffff1673ffffffffffffffffffffffffffffffffffffffff16815260200190815260200160002060009054906101000a90505050423373ffffffffffffffffffffffffffffffffffffffff167f1db613004119dde2a638b639fba9960c0e6064ee7c2d06f300e41c78920ed6dc60405160405180910390a3601354600f5414156112325761122b6119e0565b9050611237565b600190505b90565b600080600581111561124857fe5b600c60019054906101000a900460ff16600581111561126357fe5b14151561126f57600080fd5b600090506002543073ffffffffffffffffffffffffffffffffffffffff1631101515611408576112c16002543073ffffffffffffffffffffffffffffffffffffffff163161193b90919063ffffffff16565b90506112ed813073ffffffffffffffffffffffffffffffffffffffff163161193b90919063ffffffff16565b6002541415156112f957fe5b34811115151561130557fe5b600081111561139b573373ffffffffffffffffffffffffffffffffffffffff166108fc829081150290604051600060405180830381858888f19350505050158015611354573d6000803e3d6000fd5b5042813373ffffffffffffffffffffffffffffffffffffffff167f566803f6e271b911c84f87631bcd310d6a6510bf8882577a96fc76975703e43160405160405180910390a45b6001600c60016101000a81548160ff021916908360058111156113ba57fe5b021790555042600c60019054906101000a900460ff1660058111156113db57fe5b7faaae373901e745122c2e0925ad006227969c6cd190b7d5ea2fb7fdbd1d955b3560405160405180910390a35b6001600d60003373ffffffffffffffffffffffffffffffffffffffff1673ffffffffffffffffffffffffffffffffffffffff16815260200190815260200160002060006101000a81548160ff021916908315150217905550600f600081548092919060010191905055506114d6611488823461193b90919063ffffffff16565b600e60003373ffffffffffffffffffffffffffffffffffffffff1673ffffffffffffffffffffffffffffffffffffffff1681526020019081526020016000205461195490919063ffffffff16565b600e60003373ffffffffffffffffffffffffffffffffffffffff1673ffffffffffffffffffffffffffffffffffffffff168152602001908152602001600020819055504261152d823461193b90919063ffffffff16565b3373ffffffffffffffffffffffffffffffffffffffff167f1b0969ce7f5b05c5e0969329a05cdbd7e2e2f6cee33ba26fd6e6bbcff82312cd60405160405180910390a450565b600060011515600c60009054906101000a900460ff16151514151561159757600080fd5b60011515600d60003373ffffffffffffffffffffffffffffffffffffffff1673ffffffffffffffffffffffffffffffffffffffff16815260200190815260200160002060009054906101000a900460ff1615151415156115f657600080fd5b6002600581111561160357fe5b600c60019054906101000a900460ff16600581111561161e57fe5b14151561162a57600080fd5b6000600e60003373ffffffffffffffffffffffffffffffffffffffff1673ffffffffffffffffffffffffffffffffffffffff1681526020019081526020016000205411151561167857600080fd5b600f5460035481151561168757fe5b049050803073ffffffffffffffffffffffffffffffffffffffff1631101515156116ad57fe5b3373ffffffffffffffffffffffffffffffffffffffff166108fc829081150290604051600060405180830381858888f193505050501580156116f3573d6000803e3d6000fd5b5042813373ffffffffffffffffffffffffffffffffffffffff167f052f6685df2f773f854b17db1d82e2352e222010daaf8175761f02ef8782c40360405160405180910390a460003073ffffffffffffffffffffffffffffffffffffffff16311415611820576000600c60006101000a81548160ff02191690831515021790555042600c60009054906101000a900460ff1615157f160914ea27c60aa29a5f3a69d74e6069869de36e38939de1e0a66b921d8623d260405160405180910390a36003600c60016101000a81548160ff021916908360058111156117d257fe5b021790555042600c60019054906101000a900460ff1660058111156117f357fe5b7faaae373901e745122c2e0925ad006227969c6cd190b7d5ea2fb7fdbd1d955b3560405160405180910390a35b50565b6000806000806000806000806000806000600160009054906101000a900473ffffffffffffffffffffffffffffffffffffffff16600b54600254600654600854600754600554600354600c60019054906101000a900460ff16600c60009054906101000a900460ff163073ffffffffffffffffffffffffffffffffffffffff16319a509a509a509a509a509a509a509a509a509a509a50909192939495969798999a565b6000809054906101000a900473ffffffffffffffffffffffffffffffffffffffff1673ffffffffffffffffffffffffffffffffffffffff163373ffffffffffffffffffffffffffffffffffffffff1614151561192257600080fd5b8073ffffffffffffffffffffffffffffffffffffffff16ff5b600082821115151561194957fe5b818303905092915050565b600080828401905083811015151561196857fe5b8091505092915050565b6004600c60016101000a81548160ff0219169083600581111561199157fe5b021790555042600c60019054906101000a900460ff1660058111156119b257fe5b7faaae373901e745122c2e0925ad006227969c6cd190b7d5ea2fb7fdbd1d955b3560405160405180910390a3565b6000806000809054906101000a900473ffffffffffffffffffffffffffffffffffffffff1673ffffffffffffffffffffffffffffffffffffffff1660405180807f7365744672617564537461747573286164647265737329000000000000000000815250601701905060405180910390207c01000000000000000000000000000000000000000000000000000000009004600160009054906101000a900473ffffffffffffffffffffffffffffffffffffffff166040518263ffffffff167c0100000000000000000000000000000000000000000000000000000000028152600401808273ffffffffffffffffffffffffffffffffffffffff1673ffffffffffffffffffffffffffffffffffffffff1681526020019150506000604051808303816000875af192505050905042811515600160009054906101000a900473ffffffffffffffffffffffffffffffffffffffff1673ffffffffffffffffffffffffffffffffffffffff167fc1bb1d1e99d1e8d2705ba85717226a3fd9a86e4de2284b00dfe6f33538d5249f60405160405180910390a48091505090565b6000808284811515611b8a57fe5b04905080915050929150505600a165627a7a723058200c2d7c23bec1b1402df64e44bb3c0a896df737088ae0704fb6a588a62414c9860029a165627a7a723058204380c2fbb9098ddfe89ffd43c2bdfe09d3e376871eed381e9d77cbedbecb60fc0029",
  "source": "pragma solidity ^0.4.18;\n\nimport './common/SafeMath.sol';\nimport './common/Destructible.sol';\nimport './Credit.sol';\n\n/** @title Peer to peer lending contract.\n  * Inherits the Ownable and Destructible contracts.\n  */\ncontract PeerToPeerLending is Destructible {\n    /** @dev Usings */\n    // Using SafeMath for our calculations with uints.\n    using SafeMath for uint;\n\n    /** @dev State variables */\n\n    // User structure\n    struct User {\n        // Is the user currently credited.\n        bool credited;\n\n        // The adress of the active credit.\n        address activeCredit;\n\n        // Is the user marked as fraudlent.\n        bool fraudStatus;\n\n        // All user credits.\n        address[] allCredits;\n    }\n\n    // We store all users in a mapping.\n    mapping(address => User) public users;\n\n    // Array of all credits adresses.\n    address[] public credits;\n\n    /** @dev Events */\n    event LogCreditCreated(address indexed _address, address indexed _borrower, uint indexed timestamp);\n    event LogCreditStateChanged(address indexed _address, Credit.State indexed state, uint indexed timestamp);\n    event LogCreditActiveChanged(address indexed _address, bool indexed active, uint indexed timestamp);\n    event LogUserSetFraud(address indexed _address, bool fraudStatus, uint timestamp);\n\n    /** @dev Constructor */\n    function PeerToPeerLending() public {\n\n    }\n\n    /** @dev Credit application function.\n      * @param requestedAmount Requested funding amount in wei.\n      * @param repaymentsCount Requested repayments count.\n      * @param creditDescription The description of the funding.\n      * @return credit Return credit address.\n      * The function publishesh another contract which is the credit contract.\n      * The owner of the new contract is the present contract.\n      */\n    function applyForCredit(uint requestedAmount, uint repaymentsCount, uint interest, bytes32 creditDescription) public returns(address _credit) {\n        // The user should not have been credited;\n        require(users[msg.sender].credited == false);\n\n        // THe user should not be marked as fraudlent.\n        require(users[msg.sender].fraudStatus == false);\n\n        // Assert there is no active credit for the user.\n        assert(users[msg.sender].activeCredit == 0);\n\n        // Mark the user as credited. Prevent from reentrancy.\n        users[msg.sender].credited = true;\n\n        // Create a new credit contract with the given parameters.\n        Credit credit = new Credit(requestedAmount, repaymentsCount, interest, creditDescription);\n\n        // Set the user's active credit contract.\n        users[msg.sender].activeCredit = credit;\n\n        // Add the credit contract to our list with contracts.\n        credits.push(credit);\n\n        // Add the credit to the user's profile.\n        users[msg.sender].allCredits.push(credit);\n\n        // Log the credit creation event.\n        LogCreditCreated(credit, msg.sender, block.timestamp);\n\n        // Return the address of the newly created credit contract.\n        return credit;\n    }\n\n    /** @dev Get the list with all credits.\n      * @return credits Returns list of credit addresses.\n      */\n    function getCredits() public view returns (address[]) {\n        return credits;\n    }\n\n    /** @dev Get all users credits.\n      * @return users[msg.sender].allCredits Return user credits.\n      */\n    function getUserCredits() public view returns (address[]) {\n        return users[msg.sender].allCredits;\n    }\n\n    /** @dev Sets user fraudlent status true.\n     * @param _borrower The user's address.\n     * @return users[_borrower].fraudStatus Boolean of the new fraud status.\n     */\n    function setFraudStatus(address _borrower) external returns (bool) {\n        // Update user fraud status.\n        users[_borrower].fraudStatus = true;\n\n        // Log fraud status.\n        LogUserSetFraud(_borrower, users[_borrower].fraudStatus, block.timestamp);\n\n        return users[_borrower].fraudStatus;\n    }\n\n    /** @dev Function to switch active state of a credit.\n      * @param _credit The credit's address.\n      * @param state New state.\n      */\n    function changeCreditState (Credit _credit, Credit.State state) public onlyOwner {\n        // Call credit contract changeStage.\n        Credit credit = Credit(_credit);\n        credit.changeState(state);\n\n        // Log state change.\n        LogCreditStateChanged(credit, state, block.timestamp);\n    }\n\n    /** @dev Function to toggle active state of credit contract.\n      * @param _credit The credit's address.\n      */\n    function changeCreditState (Credit _credit) public onlyOwner {\n        // Call credit contract toggleActive method.\n        Credit credit = Credit(_credit);\n        bool active = credit.toggleActive();\n\n        // Log state change.\n        LogCreditActiveChanged(credit, active, block.timestamp);\n    }\n}",
  "sourcePath": "/home/tkostova/Projects/blokchain-project/smart-contracts/contracts/PeerToPeerLending.sol",
  "compiler": {
    "name": "solc",
    "version": "0.4.26+commit.4563c3fc.Emscripten.clang"
  },
  "schemaVersion": "3.4.1",
  "updatedAt": "2022-06-21T12:41:26.688Z",
  "networkType": "ethereum",
  "devdoc": {
    "methods": {
      "applyForCredit(uint256,uint256,uint256,bytes32)": {
        "details": "Credit application function.",
        "params": {
          "creditDescription": "The description of the funding.",
          "repaymentsCount": "Requested repayments count.",
          "requestedAmount": "Requested funding amount in wei."
        },
        "return": "credit Return credit address. The function publishesh another contract which is the credit contract. The owner of the new contract is the present contract."
      },
      "changeCreditState(address)": {
        "details": "Function to toggle active state of credit contract.",
        "params": {
          "_credit": "The credit's address."
        }
      },
      "changeCreditState(address,uint8)": {
        "details": "Function to switch active state of a credit.",
        "params": {
          "_credit": "The credit's address.",
          "state": "New state."
        }
      },
      "getCredits()": {
        "details": "Get the list with all credits.",
        "return": "credits Returns list of credit addresses."
      },
      "getUserCredits()": {
        "details": "Get all users credits.",
        "return": "users[msg.sender].allCredits Return user credits."
      },
      "setFraudStatus(address)": {
        "details": "Sets user fraudlent status true.",
        "params": {
          "_borrower": "The user's address."
        },
        "return": "users[_borrower].fraudStatus Boolean of the new fraud status."
      }
    },
    "title": "Peer to peer lending contract. Inherits the Ownable and Destructible contracts."
  },
  "userdoc": {
    "methods": {}
  }
}